:020000040000FA
:020000002528B1
:040002000034003492
:080008000000831203131E081F
:10001000831203138700831603131E08831203132E
:100020008600831203138C01831203139F140900AB
:100030000F30930095309200FF309100910B1E28F5
:10004000920B1C28930B1A28080000008316031338
:1000500080309F00831603138601831603138701E4
:1000600083160317890183160317880188098316ED
:1000700003138501051483120313C0308B00831210
:1000800003138C018316031340308C008312031377
:0C00900041309F0018209F149F184D283D
:02400E00F52C8F
:02401000FF3F70
:00000001FF
